:060000000200330200CAF9
:03000B000200CC24
:030013000200CE1A
:03001B000200D010
:030023000200D206
:03002B000200D4FC
:03008C0002002E41
:05002E0012008F80FEAE
:10008F00D2AF7590FF7590089000C81200A87590B8
:10009F00FF9000C81200A880ECAE82AF837DFA8E6D
:1000AF00038F041EBEFF011FEB4C7001228D048CC9
:1000BF00031C8C05EB60E8000200BE00320032002A
:0700CF003200320032003262
:06006200E478FFF6D8FD72
:100040007900E94400601B7A009000DA780075A01E
:1000500000E493F2A308B8000205A0D9F4DAF2751F
:02006000A0FFFF
:100068007800E84400600A790075A000E4F309D834
:10007800FC7800E84400600C7900900000E4F0A3EC
:04008800D8FCD9FACD
:0D0033007581071200D6E582600302002EE1
:0400D600758200220D
:00000001FF
